:100000000C9464000C948C000C948C000C948C0068
:100010000C948C000C948C000C948C000C948C0030
:100020000C948C000C948C000C948C000C94350671
:100030000C948C000C948C000C948C000C948C0010
:100040000C9493050C948C000C9403060C94DD0521
:100050000C948C000C948C000C948C000C948C00F0
:100060000C948C000C948C000000000023002600EF
:10007000290000000000240027002A0000000000E2
:10008000250028002B0004040404040404040202D4
:100090000202020203030303030302010204081025
:1000A0002040800102040810200102040810208072
:1000B0000000000800020100000304070000000027
:1000C000000000000000F10611241FBECFEFD8E0B1
:1000D000DEBFCDBF11E0A0E0B1E0E2EEF2E102C090
:1000E00005900D92A43AB107D9F722E0A4EAB1E055
:1000F00001C01D92A739B207E1F710E0C4E6D0E0D5
:1001000004C02197FE010E946009C336D107C9F7D8
:100110000E947B070C946F090C94000080E480938C
:100120007C0080917A00806480937A0080917A00CC
:1001300086FDFCCF80917800909179000895CF9250
:10014000DF92EF92FF92DC01A03282E0B807D4F593
:10015000A53BB10514F0A4EBB0E040917D0228E886
:1001600030E0241B310947FD3395220F331F220F46
:10017000331F6901330FEE08FF0840917E0228E526
:1001800032E0241B310947FD3395220F331F220F24
:10019000331F032E000C440B550B2C193D094E093F
:1001A0005F09B7FF02C0B0E0A0E00E941B0924EB8A
:1001B00030E040E050E00E94F108C20ED31EE41E81
:1001C000F51ED601E0917C02EC3080F520917D0295
:1001D00088E890E0821B910927FD9395880F991F6D
:1001E000880F991FA817B90784F020917E0288E52F
:1001F00092E0821B910927FD9395880F991F880F24
:10020000991FA817B9070CF4CD010297880F991F01
:100210004FB7F8942E2F30E0F901EE0FFF1FE20FD9
:10022000F31FE95AFD4F928381834FBFFF90EF90F8
:10023000DF90CF900895833081F028F4813099F0D9
:100240008230A9F008958730A9F08830C9F0843051
:10025000B1F4809180008F7D03C0809180008F7702
:1002600080938000089584B58F7784BD089584B508
:100270008F7DFBCF8091B0008F778093B000089581
:100280008091B0008F7DF9CF1F93CF93DF93282FFC
:1002900030E0F901E055FF4F8491F901E556FF4F39
:1002A000D491F901EA57FF4FC491CC23A9F0162F3E
:1002B00081110E941B01EC2FF0E0EE0FFF1FE458AC
:1002C000FF4FA591B4918FB7F894EC91111108C02C
:1002D000D095DE23DC938FBFDF91CF911F910895DE
:1002E000DE2BF8CFCF93DF9390E0FC01E556FF4F74
:1002F00024918A579F4FFC0184918823D1F090E08C
:10030000880F991FFC01EE58FF4FA591B491FC0195
:10031000E458FF4FC591D491623071F49FB7F894BF
:100320003C91822F809583238C93E8812E2B288308
:100330009FBFDF91CF9108958FB7F894EC912E2B4A
:100340002C938FBFF6CF3FB7F8948091B601909170
:10035000B701A091B801B091B90126B5A89B05C01D
:100360002F3F19F00196A11DB11D3FBFBA2FA92F34
:10037000982F8827BC01CD01620F711D811D911D31
:1003800042E0660F771F881F991F4A95D1F708959D
:100390008F929F92AF92BF92CF92DF92EF92FF9295
:1003A0006B017C010E94A3014B015C01C114D104CB
:1003B000E104F104B9F00E94A301681979098A09DE
:1003C0009B09683E73408105910580F321E0C21AC4
:1003D000D108E108F10888EE880E83E0981EA11C80
:1003E000B11CE4CFFF90EF90DF90CF90BF90AF9023
:1003F0009F908F900895AF92BF92CF92DF92EF922D
:10040000FF920F931F93CF93DF936C017B018B01BE
:10041000040F151FEB015E01AE18BF08C017D1070E
:1004200059F06991D601ED91FC910190F081E02D98
:10043000C6010995892B79F7C501DF91CF911F91ED
:100440000F91FF90EF90DF90CF90BF90AF90089505
:10045000FC01538D448D252F30E0842F90E0821BCA
:10046000930B541710F0CF96089501970895FC014F
:10047000918D828D981761F0A28DAE0FBF2FB11DA7
:100480005D968C91928D9F5F9F73928F90E00895FF
:100490008FEF9FEF0895FC01918D828D981731F0B9
:1004A000828DE80FF11D858D90E008958FEF9FEF0D
:1004B0000895FC01918D228D892F90E0805C9F4FE3
:1004C000821B91098F73992708958AEB91E00E940E
:1004D000590221E0892B09F420E0822F089580E061
:1004E00090E0892B29F00E94650281110C94000094
:1004F0000895FC01A48DA80FB92FB11DA35ABF4FB9
:100500002C91848D90E001968F739927848FA68912
:10051000B7892C93A089B1898C91837080648C9366
:10052000938D848D981306C00288F389E02D808115
:100530008F7D80830895EF92FF920F931F93CF9347
:10054000DF93EC0181E0888F9B8D8C8D98131AC00E
:10055000E889F989808185FF15C09FB7F894EE89F5
:10056000FF896083E889F989808183708064808352
:100570009FBF81E090E0DF91CF911F910F91FF909D
:10058000EF900895F62E0B8D10E00F5F1F4F0F7345
:100590001127E02E8C8D8E110CC00FB607FCFACF00
:1005A000E889F989808185FFF5CFCE010E94790223
:1005B000F1CFEB8DEC0FFD2FF11DE35AFF4FF082D1
:1005C0009FB7F8940B8FEA89FB8980818062CFCF37
:1005D000CF93DF93EC01888D8823B9F0AA89BB897A
:1005E000E889F9898C9185FD03C0808186FD0DC065
:1005F0000FB607FCF7CF8C9185FFF2CF808185FF86
:10060000EDCFCE010E947902E9CFDF91CF9108951D
:10061000089590E080E008958091AC01882331F145
:100620002FB7F8948091B2019091B301A091B401D9
:10063000B091B5012FBF4091A8015091A9016091DF
:10064000AA017091AB01841B950BA60BB70B883EDA
:100650009340A105B10550F01092AC0160E082E03A
:100660000E94440160E083E00C9444010895CF931C
:10067000DF930E948E00EC018091AC0181112DC0AE
:100680008091AE019091AF019E01281B390BC901E9
:1006900037FF03C09195819591090B97F4F081E0A4
:1006A0008093AC012FB7F8948091B2019091B3017F
:1006B000A091B401B091B5012FBF8093A801909390
:1006C000A901A093AA01B093AB0161E082E00E946E
:1006D000440161E083E00E944401D093AF01C093E4
:1006E000AE01DF91CF910895CF92DF92EF92FF920A
:1006F000CF93DF93EFEBF0E08491EAEAF0E0D4915E
:10070000E5E9F0E0C491CC2309F45DC081110E94B9
:100710001B01EC2FF0E0EE0FFF1FE859FF4FA591F2
:10072000B491EC91ED2331E020E009F430E0832F27
:10073000922F282F217030910001321799F03FB786
:10074000F8944091B2015091B3016091B40170915D
:10075000B5013FBF4093A4015093A5016093A6014A
:100760007093A7013FB7F8944091B2015091B30143
:100770006091B4017091B5013FBFC090A401D090C9
:10078000A501E090A601F090A7014C195D096E0942
:100790007F09433351056105710560F03091000117
:1007A000332341F0892B31F48091B00191E0892706
:1007B0008093B00120930001DF91CF91FF90EF90E3
:1007C000DF90CF90089590E080E0B3CFFC010190DE
:1007D0000020E9F73197AF01481B590BBC018FE7A7
:1007E00092E00C94FB01CF93DF93EC0160E08E81EB
:1007F0000E94440161E08E810E94440160E08E818C
:100800000E9444018BE891E00197F1F7DF91CF91CD
:100810000895CF92DF92EF92FF920F931F93CF93A1
:10082000DF936C017C0187E0E80EF11CD0E0C0E0B2
:10083000062F10E0B8010C2E02C0759567950A943A
:10084000E2F76170F70181917F010E9444012196D6
:10085000C430D10579F7C601DF91CF911F910F9177
:10086000FF90EF90DF90CF900C94F303CF92DF9244
:10087000EF92FF920F931F93CF93DF93EC01F62E2D
:10088000642F8C810E9444018D818F3F19F060E0BC
:100890000E9444010F2D10E08F8584FF25C06E015A
:1008A00087E0C80ED11CF12CE12CB8010E2C02C03F
:1008B000759567950A94E2F76170F60181916F0171
:1008C0000E944401FFEFEF1AFF0A88E0E816F104E6
:1008D00061F7CE01DF91CF911F910F91FF90EF90C3
:1008E000DF90CF900C94F303B80184E07595679581
:1008F0008A95E1F7CE010E9409046F2DCE01DF91A8
:10090000CF911F910F91FF90EF90DF90CF900C94BB
:10091000090440E0682F8FE792E00C94360481E0F0
:100920000E9489048BE39FE10197F1F70895CF932B
:10093000DF93823029F490918E02986090938E021A
:10094000809392021092930280E48093940280E15B
:100950008093950280E58093960261E08091830206
:100960000E947201809184028F3F19F061E00E9421
:10097000720161E0809185020E947201CFE7D2E0AE
:100980009E012F57324080918E0284FD0BC084E07F
:1009900090E021962817390744F461E08E810E9487
:1009A0007201EECF88E090E0F4CF8BE39DE00197F9
:1009B000F1F760E0809183020E94440160E0809141
:1009C00085020E944401809184028F3F19F060E00B
:1009D0000E94440180918E0284FD34C063E08FE761
:1009E00092E00E940904CBE4D6E4CE010197F1F72E
:1009F00063E08FE792E00E9409042197F1F763E03A
:100A00008FE792E00E94090483E592E00197F1F7F5
:100A100062E08FE792E00E94090480918E0280627A
:100A20000E94890484E080938F028CE00E948904F4
:100A30000E948F0482E08093900286E0DF91CF9144
:100A40000C94890480620E9489048BE496E40197E7
:100A5000F1F780918E0280620E94890483E592E022
:100A60000197F1F780918E0280620E948904D5CFB0
:100A700090919202891710F08FEF890FE82FF0E024
:100A8000E158FD4F848980680C94890480910101AC
:100A9000909102010E949F000E9437030E940C0364
:100AA00080E00E94380581E291E00E94E60381E047
:100AB0000E94380581E391E00E94E6030E947403DE
:100AC0006AE070E080E090E00C94C80141E00E9490
:100AD000360481E090E00895CF93DF93EC0180E04D
:100AE0000E94380581E291E00E94E60381E00E94C5
:100AF000380561E471E0CE010E946609892B31F46A
:100B000087E491E0DF91CF910C94E60366E571E014
:100B1000CE010E946609892B19F48EE591E0F2CF8F
:100B20008DE691E0EFCF1F920F920FB60F92112436
:100B30002F933F938F939F93AF93BF938091B20175
:100B40009091B301A091B401B091B5013091B10180
:100B500023E0230F2D3758F50196A11DB11D2093D9
:100B6000B1018093B2019093B301A093B401B0930B
:100B7000B5018091B6019091B701A091B801B091F3
:100B8000B9010196A11DB11D8093B6019093B701E3
:100B9000A093B801B093B901BF91AF919F918F918C
:100BA0003F912F910F900FBE0F901F90189526E840
:100BB000230F0296A11DB11DD2CF1F920F920FB627
:100BC0000F9211242F933F934F935F936F937F93D3
:100BD0008F939F93AF93BF93EF93FF938AEB91E033
:100BE0000E947902FF91EF91BF91AF919F918F91F8
:100BF0007F916F915F914F913F912F910F900FBE19
:100C00000F901F9018951F920F920FB60F921124FC
:100C10002F938F939F93EF93FF93E091CA01F091ED
:100C2000CB018081E091D001F091D10182FD1BC008
:100C300090818091D3018F5F8F732091D4018217AF
:100C400041F0E091D301F0E0E654FE4F958F8093A0
:100C5000D301FF91EF919F918F912F910F900FBE34
:100C60000F901F9018958081F4CF1F920F920FB6AE
:100C70000F9211242F933F934F935F936F937F9322
:100C80008F939F93AF93BF93CF93DF93EF93FF9394
:100C90008091AD01C0917B02D0E087FF24C010920B
:100CA0008500109284008091AD018F5F8093AD012B
:100CB0008091AD01082E000C990B8C179D0724F430
:100CC0008091AD018C30C4F18091840090918500B9
:100CD000049680349C4908F47AC0809184009091F5
:100CE0008500049676C08091AD01082E000C990B0A
:100CF0008C179D07C4F6E091AD018E2FEE0F990B76
:100D0000FC01EE0FFF1FE80FF91FE95AFD4F80812C
:100D100086FFC9CFE091AD018E2FEE0F990BFC013C
:100D2000EE0FFF1FE80FF91FE95AFD4F808160E0C9
:100D30008F730E944401B7CF2091840030918500C9
:100D4000E091AD018E2FEE0F990BFC01EE0FFF1F0E
:100D5000E80FF91FE95AFD4F81819281820F931F9D
:100D60009093890080938800E091AD018E2FEE0F63
:100D7000990BFC01EE0FFF1FE80FF91FE95AFD4F19
:100D8000808186FF11C0E091AD018E2FEE0F990B8F
:100D9000FC01EE0FFF1FE80FF91FE95AFD4F80819C
:100DA00061E08F730E944401FF91EF91DF91CF9139
:100DB000BF91AF919F918F917F916F915F914F9173
:100DC0003F912F910F900FBE0F901F90189580E4C8
:100DD0009CE990938900809388008FEF8093AD0108
:100DE000E3CFCF931092BD011092BC0188EE93E047
:100DF000A0E0B0E08093BE019093BF01A093C0013A
:100E0000B093C10187E091E09093BB018093BA0158
:100E100085EC90E09093C7018093C60184EC90E04C
:100E20009093C9018093C80180EC90E09093CB012E
:100E30008093CA0181EC90E09093CD018093CC0126
:100E400082EC90E09093CF018093CE0186EC90E00D
:100E50009093D1018093D0011092D3011092D401CC
:100E60001092D5011092D601109282021092810246
:100E700089E191E09093800280937F028DE08093DE
:100E80008302CFEFC09384028CE0809385028BE0D5
:100E9000809386028AE08093870289E080938802AB
:100EA00088E08093890210928A0210928B0210923D
:100EB0008C0210928D0210928E0281E00E949704A3
:100EC00080917B028C30A0F491E0980F90937B028C
:100ED00080937C0290E0FC01EE0FFF1FE80FF91FEA
:100EE000E95AFD4F88EB9BE092838183CF9108956F
:100EF000C0937C02FBCF789484B5826084BD84B5B6
:100F0000816084BD85B5826085BD85B5816085BD04
:100F100080916E00816080936E00109281008091BC
:100F20008100826080938100809181008160809344
:100F30008100809180008160809380008091B10069
:100F400084608093B1008091B00081608093B00094
:100F500080917A00846080937A0080917A00826028
:100F600080937A0080917A00816080937A008091EA
:100F70007A00806880937A001092C1008AE590E040
:100F8000909302018093010180917C028C3008F0E3
:100F900051C061E086E00E94720180917C02282F9E
:100FA00030E0F901EE0FFF1FE20FF31FE95AFD4F8A
:100FB0009081907C9660908310927D0210927E02C8
:100FC0002CE0622F0E945409829FB001112430E06E
:100FD00020E0AB01420F531FFA01EE0FFF1FE40F99
:100FE000F51FE95AFD4F908196FD16C02F5F3F4FC8
:100FF0002C30310571F781110FC01092800082E012
:10100000809381001092850010928400B19A8091A3
:101010006F00826080936F00E0917C028E2F90E0E1
:10102000FC01EE0FFF1FE80FF91FE95AFD4F808109
:101030008064808380910101909102010E949F0051
:1010400082E00E9497048CE791E00E94E60381E031
:101050000E9438058AE891E00E94E60362E08FE092
:101060000E947201E091CA01F091CB0182E080837D
:10107000E091C601F091C7011082E091C801F091A2
:10108000C9018FEC80831092D201E091CE01F091E2
:10109000CF0186E08083E091CC01F091CD01808189
:1010A00080618083E091CC01F091CD0180818860E6
:1010B0008083E091CC01F091CD01808180688083B4
:1010C000E091CC01F091CD0180818F7D808361E042
:1010D00082E00E94720161E083E00E94720160E0A0
:1010E00082E00E94440160E083E00E9444010E948B
:1010F0008E009093AF018093AE0166E970E080E0CE
:1011000090E00E94C8010E948F0400E010E00E945D
:101110008F0480E00E9438058CE791E00E94E6038E
:1011200081E00E94380587E991E00E94E6036CEDBA
:1011300075E080E090E00E94C801CCE3D0E00E941E
:1011400074030E9437030E940C038091B00188232E
:1011500019F00E944605F9CFCE010E949F00D0935E
:101160000201C093010181E491E00E946C0564E1F9
:1011700070E080E090E00E94C8012196C937D10557
:10118000F1F6C8E7D0E00E9474030E9437030E9482
:101190000C038091B001882319F00E944605F9CF15
:1011A000CE010E949F00D0930201C093010186E509
:1011B00091E00E946C0564E170E080E090E00E94A4
:1011C000C8012197CB33D105F1F60115110509F4BA
:1011D0009ECF0E946502882309F499CF0E940000E7
:1011E00096CF052E97FB1EF400940E94080957FD28
:1011F00007D00E94230907FC03D04EF40C94080981
:1012000050954095309521953F4F4F4F5F4F089532
:1012100090958095709561957F4F8F4F9F4F089562
:101220000E944509A59F900DB49F900DA49F800D2D
:10123000911D11240895B7FF0C9410090E94100904
:10124000821B930B0895A1E21A2EAA1BBB1BFD0162
:101250000DC0AA1FBB1FEE1FFF1FA217B307E40795
:10126000F50720F0A21BB30BE40BF50B661F771FED
:10127000881F991F1A9469F76095709580959095CD
:101280009B01AC01BD01CF010895A29FB001B39FA6
:10129000C001A39F700D811D1124911DB29F700D7F
:1012A000811D1124911D0895991B79E004C0991F97
:1012B000961708F0961B881F7A95C9F780950895B0
:1012C000EE0FFF1F0590F491E02D0994FB01DC0166
:1012D0008D91019080190110D9F3990B0895F8941C
:0212E000FFCF3E
:1012E200015A00000000009B02FB012802E802599B
:1012F2000237024B02000000006605FB01090308E9
:1013020003416E6B6C6520546865726170792020B0
:101312000049646C652020202020202020202020ED
:1013220000444F52534900446F7273692D666C65D5
:1013320078696E672000504C414E54415200506C07
:10134200616E7461722D666C657820200049646C50
:10135200652020202020202020202000416E6B6C60
:1013620065205468657261707900496E69746961BB
:101372006C697A696E67005374617274696E672E64
:041382002E2E00000B
:00000001FF
