:100000000C945F000C9487000C9487000C9487007C
:100010000C9487000C9487000C9487000C94870044
:100020000C9487000C9487000C9487000C94940423
:100030000C9487000C9487000C9487000C94870024
:100040000C94F2030C9487000C9462040C943C040E
:100050000C9487000C9487000C9487000C94870004
:100060000C9487000C9487000000000024002700F7
:100070002A0000000000250028002B0004040404CE
:100080000404040402020202020203030303030342
:10009000020102040810204080010204081020011F
:1000A0000204081020800000000800020100000384
:1000B00004070000000000000000000050051124AB
:1000C0001FBECFEFD8E0DEBFCDBF11E0A0E0B1E0B2
:1000D000EAE4FFE002C005900D92A437B107D9F71A
:1000E00022E0A4E7B1E001C01D92A534B207E1F718
:1000F00010E0CFE5D0E004C02197FE010E949D07EB
:10010000CE35D107C9F70E94B5050C94A3070C940E
:100110000000CF92DF92EF92FF92DC01A03282E0EA
:10012000B807D4F5A53BB10514F0A4EBB0E04091BD
:10013000430228E830E0241B310947FD3395220FA4
:10014000331F220F331F6901330FEE08FF08409160
:10015000440228E532E0241B310947FD3395220F84
:10016000331F220F331F032E000C440B550B2C1989
:100170003D094E095F09B7FF02C0B0E0A0E00E9450
:10018000580724EB30E040E050E00E942E07C20EFA
:10019000D31EE41EF51ED601E0914202EC3080F53C
:1001A0002091430288E890E0821B910927FD9395F6
:1001B000880F991F880F991FA817B90784F02091FD
:1001C000440288E592E0821B910927FD9395880FF0
:1001D000991F880F991FA817B9070CF4CD01029732
:1001E000880F991F4FB7F8942E2F30E0F901EE0FCA
:1001F000FF1FE20FF31FE55EFD4F928381834FBF28
:10020000FF90EF90DF90CF90089590E0FC01EA55C9
:10021000FF4F2491FC01EF56FF4F3491FC01E4584D
:10022000FF4FE491EE23C9F0222339F0233001F18E
:10023000A8F4213019F1223029F1F0E0EE0FFF1F70
:10024000EE58FF4FA591B4918FB7F894EC916111DE
:1002500026C030953E233C938FBF08952730A9F0E8
:100260002830C9F0243049F7809180008F7D03C089
:10027000809180008F7780938000DFCF84B58F7767
:1002800084BDDBCF84B58F7DFBCF8091B0008F77AD
:100290008093B000D2CF8091B0008F7DF9CF3E2BFC
:1002A000DACF3FB7F8948091760190917701A091D1
:1002B0007801B091790126B5A89B05C02F3F19F0B0
:1002C0000196A11DB11D3FBFBA2FA92F982F8827D6
:1002D000BC01CD01620F711D811D911D42E0660FB1
:1002E000771F881F991F4A95D1F708958F929F9283
:1002F000AF92BF92CF92DF92EF92FF926B017C019F
:100300000E9451014B015C01C114D104E104F104CC
:10031000B9F00E945101681979098A099B09683E60
:1003200073408105910580F321E0C21AD108E108EC
:10033000F10888EE880E83E0981EA11CB11CE4CF62
:10034000FF90EF90DF90CF90BF90AF909F908F90F5
:100350000895AF92BF92CF92DF92EF92FF920F93E8
:100360001F93CF93DF936C017B018B01040F151F4B
:10037000EB015E01AE18BF08C017D10759F06991B3
:10038000D601ED91FC910190F081E02DC601099517
:10039000892B79F7C501DF91CF911F910F91FF90C4
:1003A000EF90DF90CF90BF90AF900895FC01538DF8
:1003B000448D252F30E0842F90E0821B930B54173F
:1003C00010F0CF96089501970895FC01918D828DCC
:1003D000981761F0A28DAE0FBF2FB11D5D968C9165
:1003E000928D9F5F9F73928F90E008958FEF9FEFA4
:1003F0000895FC01918D828D981731F0828DE80F60
:10040000F11D858D90E008958FEF9FEF08952FB730
:10041000F89480917A0190917B01A0917C01B09138
:100420007D012FBF8093860190938701A09388015F
:10043000B09389018EE791E00E94F90197FF26C0F1
:100440002FB7F89480917A0190917B01A0917C0163
:10045000B0917D012FBF409186015091870160913D
:10046000880170918901841B950BA60BB70B4091F5
:1004700082015091830160918401709185018417FC
:100480009507A607B707B0F28FEF9FEF0895CF92B9
:10049000DF92EF92FF92CF930E940702FC0197FD3B
:1004A0004EC08D32910521F0C0970A9708F040C0E8
:1004B000C12CD12C7601C0E0E130F105D1F0ED3254
:1004C000F105D9F1CF01C0970A9798F4AAE0B0E0FE
:1004D000A70196010E944D076F01FF0FEE08FF086C
:1004E000C60ED71EE81EF91E80E3C81AD108E1081F
:1004F000F1088EE791E00E94E5010E940702FC01ED
:10050000C0970A97C8F2E130F105B1F2CC2341F06F
:10051000F094E094D094C094C11CD11CE11CF11C57
:10052000C701B601CF91FF90EF90DF90CF90089573
:100530008EE791E00E94E501AFCFC1E0DACFC12C98
:10054000D12C7601EDCFFC01918D228D892F90E089
:10055000805C9F4F821B91098F73992708958EE7C6
:1005600091E00E94A30221E0892B09F420E0822F70
:10057000089580E090E0892B29F00E94AF0281115C
:100580000C9400000895FC01A48DA80FB92FB11D93
:10059000A35ABF4F2C91848D90E001968F739927B9
:1005A000848FA689B7892C93A089B1898C91837097
:1005B00080648C93938D848D981306C00288F38990
:1005C000E02D80818F7D80830895EF92FF920F93BD
:1005D0001F93CF93DF93EC0181E0888F9B8D8C8DEF
:1005E00098131AC0E889F989808185FF15C09FB7E3
:1005F000F894EE89FF896083E889F98980818370A6
:10060000806480839FBF81E090E0DF91CF911F9154
:100610000F91FF90EF900895F62E0B8D10E00F5F75
:100620001F4F0F731127E02E8C8D8E110CC00FB64B
:1006300007FCFACFE889F989808185FFF5CFCE01E3
:100640000E94C302F1CFEB8DEC0FFD2FF11DE35A99
:10065000FF4FF0829FB7F8940B8FEA89FB89808166
:100660008062CFCFCF93DF93EC01888D8823B9F0E0
:10067000AA89BB89E889F9898C9185FD03C08081AD
:1006800086FD0DC00FB607FCF7CF8C9185FFF2CF2A
:10069000808185FFEDCFCE010E94C302E9CFDF91BB
:1006A000CF910895FC0101900020E9F73197AF0147
:1006B000481B590BBC018EE791E00C94A901CF9324
:1006C000DF930E945203EC0188E191E00E94520303
:1006D0008C0F9D1FDF91CF9108958F929F92AF92C3
:1006E000BF92CF92DF92EF92FF920F931F93CF931F
:1006F000DF93CDB7DEB7A1970FB6F894DEBF0FBE7C
:10070000CDBF6C01990FEE08FF08F7FE47C06DE200
:100710008EE791E00E94E5028C0122273327A90190
:100720002C193D094E095F0919A2CE0181967C0161
:100730009AE0892E912CA12CB12CCA01B901A501F6
:1007400094010E946007605DF70162937F012115AB
:1007500031054105510589F790E080E0309719F0A7
:10076000CF010E945203080F191F88E191E00E94F7
:100770005203800F911FA1960FB6F894DEBF0FBEF3
:10078000CDBFDF91CF911F910F91FF90EF90DF9040
:10079000CF90BF90AF909F908F900895A701960142
:1007A00019A28E010F5D1F4F8AE0C82ED12CE12CBB
:1007B000F12CCA01B901A70196010E946007605D92
:1007C000F80162938F01211531054105510589F723
:1007D000309729F0CF010E9452038C01C6CF10E060
:1007E00000E0C3CF1F920F920FB60F9211242F93E8
:1007F0003F938F939F93AF93BF9380917A01909192
:100800007B01A0917C01B0917D013091750123E0C5
:10081000230F2D3758F50196A11DB11D20937501A9
:1008200080937A0190937B01A0937C01B0937D012A
:100830008091760190917701A0917801B091790132
:100840000196A11DB11D8093760190937701A0932D
:100850007801B0937901BF91AF919F918F913F91B2
:100860002F910F900FBE0F901F90189526E8230F21
:100870000296A11DB11DD2CF1F920F920FB60F92FB
:1008800011242F933F934F935F936F937F938F9395
:100890009F93AF93BF93EF93FF938EE791E00E94F6
:1008A000C302FF91EF91BF91AF919F918F917F9183
:1008B0006F915F914F913F912F910F900FBE0F90CD
:1008C0001F9018951F920F920FB60F9211242F931D
:1008D0008F939F93EF93FF93E0918E01F0918F019F
:1008E0008081E0919401F091950182FD1BC090817F
:1008F000809197018F5F8F7320919801821741F04B
:10090000E0919701F0E0E258FE4F958F80939701B8
:10091000FF91EF919F918F912F910F900FBE0F90AC
:100920001F9018958081F4CF1F920F920FB60F92EF
:1009300011242F933F934F935F936F937F938F93E4
:100940009F93AF93BF93CF93DF93EF93FF938091E8
:100950007401C0913F02D0E087FF24C0109285004F
:1009600010928400809174018F5F80937401809154
:100970007401082E000C990B8C179D0724F48091AC
:1009800074018C30C4F180918400909185000496AC
:1009900080349C4908F47AC080918400909185004D
:1009A000049676C080917401082E000C990B8C1768
:1009B0009D07C4F6E09174018E2FEE0F990BFC0198
:1009C000EE0FFF1FE80FF91FE55EFD4F808186FFE8
:1009D000C9CFE09174018E2FEE0F990BFC01EE0F41
:1009E000FF1FE80FF91FE55EFD4F808160E08F7308
:1009F0000E940501B7CF2091840030918500E091DD
:100A000074018E2FEE0F990BFC01EE0FFF1FE80F04
:100A1000F91FE55EFD4F81819281820F931F9093B4
:100A2000890080938800E09174018E2FEE0F990B5E
:100A3000FC01EE0FFF1FE80FF91FE55EFD4F8081FF
:100A400086FF11C0E09174018E2FEE0F990BFC010F
:100A5000EE0FFF1FE80FF91FE55EFD4F808161E09B
:100A60008F730E940501FF91EF91DF91CF91BF91AC
:100A7000AF919F918F917F916F915F914F913F9136
:100A80002F910F900FBE0F901F90189580E49CE956
:100A900090938900809388008FEF80937401E3CF57
:100AA000109281011092800188EE93E0A0E0B0E006
:100AB0008093820190938301A0938401B093850178
:100AC0008AE091E090937F0180937E0185EC90E035
:100AD00090938B0180938A0184EC90E090938D0138
:100AE00080938C0180EC90E090938F0180938E0135
:100AF00081EC90E0909391018093900182EC90E0E2
:100B0000909393018093920186EC90E090939501ED
:100B1000809394011092970110929801109299017C
:100B200010929A0180913F028C30D8F491E0980F96
:100B300090933F028093420290E0FC01EE0FFF1F72
:100B4000E80FF91FE55EFD4F88EB9BE09283818300
:100B5000809104019091050190934102809340029D
:100B600008958FEF80934202F3CF789484B582602A
:100B700084BD84B5816084BD85B5826085BD85B541
:100B8000816085BD80916E00816080936E001092BF
:100B9000810080918100826080938100809181003A
:100BA00081608093810080918000816080938000CB
:100BB0008091B10084608093B1008091B000816029
:100BC0008093B00080917A00846080937A00809155
:100BD0007A00826080937A0080917A0081608093AD
:100BE0007A0080917A00806880937A001092C10028
:100BF000809142028C3008F068C0EAE9F0E024916C
:100C0000E5E8F0E08491882399F090E0880F991F3F
:100C1000FC01E859FF4FA591B491FC01EE58FF4F3C
:100C2000859194918FB7F894EC91E22BEC938FBF60
:100C300080914202282F30E0F901EE0FFF1FE20FF2
:100C4000F31FE55EFD4F9081907C99609083109238
:100C50004302109244022CE0622F0E949107829F6F
:100C6000B001112430E020E0AB01420F531FFA0124
:100C7000EE0FFF1FE40FF51FE55EFD4F908196FD1F
:100C800016C02F5F3F4F2C30310571F781110FC017
:100C90001092800082E08093810010928500109273
:100CA0008400B19A80916F00826080936F00E09120
:100CB00042028E2F90E0FC01EE0FFF1FE80FF91F9C
:100CC000E55EFD4F80818064808380914002909139
:100CD00041020E948900E0918E01F0918F0182E033
:100CE0008083E0918A01F0918B011082E0918C0168
:100CF000F0918D018FEC808310929601E09192012A
:100D0000F091930186E08083E0919001F091910150
:100D1000808180618083E0919001F09191018081D8
:100D200088608083E0919001F091910180818068DA
:100D30008083E0919001F091910180818F7D80838B
:100D40008BE191E00E945F038EE791E00E94A30295
:100D5000892BD1F30E94470270930501609304012F
:100D60008CE291E00E945F038EE791E00E94A30273
:100D7000892BD1F30E944702709303016093020113
:100D80008DE391E00E945F038EE791E00E94A30251
:100D9000892BD1F30E9447027093010160930001F7
:100DA0008FE491E00E945F038FE591E00E9452037F
:100DB00080910401909105010E946D0385E691E008
:100DC0000E94520380910201909103010E946D03E1
:100DD0008BE691E00E945203809100019091010105
:100DE0000E946D0380E0C82E80E0D82EE0900401C0
:100DF000F09005018701C0910201D0910301C01755
:100E0000D10784F0C8010E948900609100017091AF
:100E10000101072E000C880B990B0E9476010F5FD1
:100E20001F4FE9CFCE15DF057CF0CE010E9489006F
:100E30006091000170910101072E000C880B990B45
:100E40000E9476012197EECFC114D10479F20E945D
:100E5000AF02882359F20E940000C8CF052E97FBED
:100E60001EF400940E94450757FD07D00E946007BA
:100E700007FC03D04EF40C944507509540953095EF
:100E800021953F4F4F4F5F4F0895909580957095F6
:100E900061957F4F8F4F9F4F08950E948207A59FB6
:100EA000900DB49F900DA49F800D911D1124089565
:100EB000B7FF0C944D070E944D07821B930B0895BA
:100EC000A1E21A2EAA1BBB1BFD010DC0AA1FBB1F4E
:100ED000EE1FFF1FA217B307E407F50720F0A21BC0
:100EE000B30BE40BF50B661F771F881F991F1A942D
:100EF00069F760957095809590959B01AC01BD0157
:100F0000CF010895A29FB001B39FC001A39F700DB0
:100F1000811D1124911DB29F700D811D1124911D01
:100F20000895991B79E004C0991F961708F0961B45
:100F3000881F7A95C9F780950895EE0FFF1F0590D9
:0A0F4000F491E02D0994F894FFCF1E
:100F4A00140078001E0000000000E502A901D60185
:100F5A003203A302E501F9010D0A00456E746572B8
:100F6A00204D494E20616E676C653A00456E746586
:100F7A0072204D415820616E676C653A00456E7467
:100F8A00657220535045454420286D73293A005014
:100F9A006172616D6574657273207365743A004D90
:100FAA00696E3A20004D61783A2000537065656495
:040FBA003A200000D9
:00000001FF
