:020000040000FA
:100000000C945F000C9487000C9487000C9487007C
:100010000C9487000C9487000C9487000C94870044
:100020000C9487000C9487000C9487000C94C001FA
:100030000C9487000C9487000C9487000C94870024
:100040000C9476010C9487000C9487000C94870024
:100050000C9487000C9487000C9487000C94870004
:100060000C9487000C9487000000000024002700F7
:100070002A0000000000250028002B0004040404CE
:100080000404040402020202020203030303030342
:10009000020102040810204080010204081020011F
:1000A0000204081020800000000800020100000384
:1000B0000407000000000000000000009E0311245F
:1000C0001FBECFEFD8E0DEBFCDBF11E0A0E0B1E0B2
:1000D000E0E6F8E002C005900D92A230B107D9F732
:1000E00021E0A2E0B1E001C01D92A433B207E1F724
:1000F00010E0CFE5D0E004C02197FE010E94280463
:10010000CE35D107C9F70E947C020C942E040C94C2
:100110000000CF92DF92EF92FF92DC01A03282E0EA
:10012000B807D4F5A53BB10514F0A4EBB0E04091BD
:10013000320128E830E0241B310947FD3395220FB6
:10014000331F220F331F6901330FEE08FF08409160
:10015000330128E532E0241B310947FD3395220F96
:10016000331F220F331F032E000C440B550B2C1989
:100170003D094E095F09B7FF02C0B0E0A0E00E9450
:10018000E30324EB30E040E050E00E94B903C20EEC
:10019000D31EE41EF51ED601E0913101EC3080F54E
:1001A0002091320188E890E0821B910927FD939508
:1001B000880F991F880F991FA817B90784F02091FD
:1001C000330188E592E0821B910927FD9395880F02
:1001D000991F880F991FA817B9070CF4CD01029732
:1001E000880F991F4FB7F8942E2F30E0F901EE0FCA
:1001F000FF1FE20FF31FE35FFE4F928381834FBF28
:10020000FF90EF90DF90CF90089590E0FC01EA55C9
:10021000FF4F2491FC01EF56FF4F3491FC01E4584D
:10022000FF4FE491EE23C9F0222339F0233001F18E
:10023000A8F4213019F1223029F1F0E0EE0FFF1F70
:10024000EE58FF4FA591B4918FB7F894EC916111DE
:1002500026C030953E233C938FBF08952730A9F0E8
:100260002830C9F0243049F7809180008F7D03C089
:10027000809180008F7780938000DFCF84B58F7767
:1002800084BDDBCF84B58F7DFBCF8091B0008F77AD
:100290008093B000D2CF8091B0008F7DF9CF3E2BFC
:1002A000DACF3FB7F8948091090190910A01A091AB
:1002B0000B01B0910C0126B5A89B05C02F3F19F08A
:1002C0000196A11DB11D3FBFBA2FA92F982F8827D6
:1002D000BC01CD01620F711D811D911D42E0660FB1
:1002E000771F881F991F4A95D1F708951F920F9283
:1002F0000FB60F9211242F933F938F939F93AF9339
:10030000BF938091050190910601A0910701B091E2
:1003100008013091040123E0230F2D3758F5019691
:10032000A11DB11D20930401809305019093060146
:10033000A0930701B09308018091090190910A01EF
:10034000A0910B01B0910C010196A11DB11D8093EC
:10035000090190930A01A0930B01B0930C01BF9186
:10036000AF919F918F913F912F910F900FBE0F9062
:100370001F90189526E8230F0296A11DB11DD2CF1C
:100380001F920F920FB60F9211242F933F934F930A
:100390005F936F937F938F939F93AF93BF93CF930D
:1003A000DF93EF93FF9380910301C0910201D0E0AE
:1003B00087FF24C010928500109284008091030171
:1003C0008F5F8093030180910301082E000C990B2D
:1003D0008C179D0724F4809103018C30C4F1809127
:1003E000840090918500049680349C4908F47AC07A
:1003F0008091840090918500049676C080910301DD
:10040000082E000C990B8C179D07C4F6E091030190
:100410008E2FEE0F990BFC01EE0FFF1FE80FF91F57
:10042000E35FFE4F808186FFC9CFE09103018E2FED
:10043000EE0F990BFC01EE0FFF1FE80FF91FE35FB2
:10044000FE4F808160E08F730E940501B7CF20913D
:10045000840030918500E09103018E2FEE0F990BFF
:10046000FC01EE0FFF1FE80FF91FE35FFE4F8181D4
:100470009281820F931F9093890080938800E0916E
:1004800003018E2FEE0F990BFC01EE0FFF1FE80FFB
:10049000F91FE35FFE4F808186FF11C0E0910301E9
:1004A0008E2FEE0F990BFC01EE0FFF1FE80FF91FC7
:1004B000E35FFE4F808161E08F730E940501FF9131
:1004C000EF91DF91CF91BF91AF919F918F917F91EC
:1004D0006F915F914F913F912F910F900FBE0F90B1
:1004E0001F90189580E49CE9909389008093880080
:1004F0008FEF80930301E3CF789484B5826084BD4D
:1005000084B5816084BD85B5826085BD85B5816017
:1005100085BD80916E00816080936E001092810095
:100520008091810082608093810080918100816050
:100530008093810080918000816080938000809111
:10054000B10084608093B1008091B000816080939D
:10055000B00080917A00846080937A0080917A0064
:10056000826080937A0080917A00816080937A0023
:1005700080917A00806880937A001092C100809107
:1005800031018C3008F068C0EAE9F0E02491E5E838
:10059000F0E08491882399F090E0880F991FFC0186
:1005A000E859FF4FA591B491FC01EE58FF4F85919A
:1005B00094918FB7F894EC91E22BEC938FBF8091DC
:1005C0003101282F30E0F901EE0FFF1FE20FF31F7A
:1005D000E35FFE4F9081907C99609083109232018E
:1005E000109233012CE0622F0E941C04829FB00104
:1005F000112430E020E0AB01420F531FFA01EE0F4F
:10060000FF1FE40FF51FE35FFE4F908196FD16C0BC
:100610002F5F3F4F2C30310571F781110FC01092C1
:10062000800082E080938100109285001092840007
:10063000B19A80916F00826080936F00E0913101E8
:100640008E2F90E0FC01EE0FFF1FE80FF91FE35F14
:10065000FE4F808180648083809100019091010130
:100660000E94890010E4CC24CA9493E0D92EE12C96
:10067000F12CC0E0D0E010937C0080917A0080647F
:1006800080937A0080917A0086FDFCCF20917800DB
:1006900030917900AAE5B0E00E940D04A70196010F
:1006A0000E94B903225E3F4F4F4F5F4FB9018091C7
:1006B000000190910101281B390B37FF03C03195D0
:1006C000219531092330310554F0861797078CF5B1
:1006D000019690930101809300010E9489000E947D
:1006E00051012B013C0184E1882E912CA12CB12CCD
:1006F0000E9451016419750986099709683E734083
:1007000081059105A8F321E0821A9108A108B1089A
:1007100088EE480E83E0581E611C711C8114910400
:10072000A104B10429F7209709F4A5CF0E94000085
:10073000A2CF681779079CF60197CBCF8091020171
:100740008C3098F491E0980F9093020180933101DE
:1007500090E0FC01EE0FFF1FE80FF91FE35FFE4F73
:1007600088EB9BE09283818308958FEF8093310122
:100770000895052E97FB1EF400940E94D00357FDA8
:1007800007D00E94EB0307FC03D04EF40C94D00377
:1007900050954095309521953F4F4F4F5F4F0895AD
:1007A00090958095709561957F4F8F4F9F4F0895DD
:1007B0000E940D04A59F900DB49F900DA49F800DE5
:1007C000911D11240895B7FF0C94D8030E94D803FB
:1007D000821B930B0895A1E21A2EAA1BBB1BFD01DD
:1007E0000DC0AA1FBB1FEE1FFF1FA217B307E40710
:1007F000F50720F0A21BB30BE40BF50B661F771F68
:10080000881F991F1A9469F7609570958095909547
:100810009B01AC01BD01CF010895A29FB001B39F20
:10082000C001A39F700D811D1124911DB29F700DF9
:10083000811D1124911D0895991B79E004C0991F11
:10084000961708F0961B881F7A95C9F7809508952A
:10085000EE0FFF1F0590F491E02D0994F894FFCF5F
:020860004B004B
:107E00001F92CDB7DEB7112484B714BE982F9D7092
:107E100009F0D7D085E08093810082E08093C00094
:107E200088E18093C10086E08093C20082E2809363
:107E3000C4008EE0B1D0259A26E080E39CEF31E0CB
:107E4000909385008093840036BBB09BFECF1D9A33
:107E5000A8952150A9F7812C912C93E0F92EEE24BE
:107E6000E39425E0D22E31E1C32E8AD0813479F417
:107E700087D0898397D08981823811F482E005C048
:107E8000813811F486E001C083E073D06FC0823482
:107E900011F484E103C0853419F485E08BD066C009
:107EA000853541F46DD0882E6BD0912C982A880CA2
:107EB000991C5BC0863521F484E07CD080E0E5CF5E
:107EC000843609F036C05CD05BD0B82E59D0A82ECD
:107ED00000E011E055D0F80181938F01BE12FACF76
:107EE00061D0F5E4AF1201C0FFCFF401F7BEE89511
:107EF00007B600FCFDCFB401A0E0B1E02C911296D2
:107F0000AD0141505109FA01808130E0382BFB016D
:107F10000901E7BEE89511246E5F7F4FBA12EECFDC
:107F2000F401D7BEE89507B600FCFDCFC7BEE895C3
:107F30001DC0843769F424D023D0B82E21D032D08C
:107F40008401F80185918F0114D0BA94D1F70EC045
:107F5000853739F427D08EE10CD085E90AD08FE03F
:107F600094CF813511F488E017D01CD080E101D086
:107F70007CCF9091C00095FFFCCF8093C600089500
:107F80008091C00087FFFCCF8091C00084FD01C0BC
:107F9000A8958091C6000895E0E6F0E098E190830E
:107FA00080830895EDDF803219F088E0F5DFFFCFA0
:107FB00084E1DFCFCF93C82FE3DFC150E9F7CF9142
:0E7FC000F1CF282E80E0E8DFE0E0FF270994F3
:027FFE00020679
:00000001FF
