:100000000C9464000C948C000C948C000C948C0068
:100010000C948C000C948C000C948C000C948C0030
:100020000C948C000C948C000C948C000C941C068A
:100030000C948C000C948C000C948C000C948C0010
:100040000C947A050C948C000C94EA050C94C4056D
:100050000C948C000C948C000C948C000C948C00F0
:100060000C948C000C948C000000000023002600EF
:10007000290000000000240027002A0000000000E2
:10008000250028002B0004040404040404040202D4
:100090000202020203030303030302010204081025
:1000A0002040800102040810200102040810208072
:1000B0000000000800020100000304070000000027
:1000C000000000000000D80611241FBECFEFD8E0CA
:1000D000DEBFCDBF11E0A0E0B1E0EEE8F2E102C08A
:1000E00005900D92A637B107D9F722E0A6E7B1E057
:1000F00001C01D92A436B207E1F710E0C4E6D0E0DB
:1001000004C02197FE010E943F09C336D107C9F7F9
:100110000E9468070C9445090C940000CF92DF926E
:10012000EF92FF92DC01A03282E0B807D4F5A53B44
:10013000B10514F0A4EBB0E040914A0228E830E0A9
:10014000241B310947FD3395220F331F220F331F24
:100150006901330FEE08FF0840914B0228E532E0B9
:10016000241B310947FD3395220F331F220F331F04
:10017000032E000C440B550B2C193D094E095F0949
:10018000B7FF02C0B0E0A0E00E94FA0824EB30E024
:1001900040E050E00E94D008C20ED31EE41EF51EBF
:1001A000D601E0914902EC3080F520914A0288E8BE
:1001B00090E0821B910927FD9395880F991F880F66
:1001C000991FA817B90784F020914B0288E592E0A7
:1001D000821B910927FD9395880F991F880F991FFE
:1001E000A817B9070CF4CD010297880F991F4FB7D4
:1001F000F8942E2F30E0F901EE0FFF1FE20FF31FEE
:10020000EE5DFD4F928381834FBFFF90EF90DF90B3
:10021000CF900895833081F028F4813099F08230B6
:10022000A9F008958730A9F08830C9F08430B1F47E
:10023000809180008F7D03C0809180008F778093B4
:100240008000089584B58F7784BD089584B58F7D2F
:10025000FBCF8091B0008F778093B000089580919C
:10026000B0008F7DF9CF1F93CF93DF93282F30E01D
:10027000F901E055FF4F8491F901E556FF4FD49104
:10028000F901EA57FF4FC491CC23A9F0162F811131
:100290000E940A01EC2FF0E0EE0FFF1FE458FF4F21
:1002A000A591B4918FB7F894EC91111108C0D09535
:1002B000DE23DC938FBFDF91CF911F910895DE2B5A
:1002C000F8CFCF93DF9390E0FC01E556FF4F2491E8
:1002D0008A579F4FFC0184918823D1F090E0880FCA
:1002E000991FFC01EE58FF4FA591B491FC01E45811
:1002F000FF4FC591D491623071F49FB7F8943C914F
:10030000822F809583238C93E8812E2B28839FBF97
:10031000DF91CF9108958FB7F894EC912E2B2C9309
:100320008FBFF6CF3FB7F894809181019091820101
:10033000A0918301B091840126B5A89B05C02F3FF1
:1003400019F00196A11DB11D3FBFBA2FA92F982FFB
:100350008827BC01CD01620F711D811D911D42E0F6
:10036000660F771F881F991F4A95D1F708958F92BE
:100370009F92AF92BF92CF92DF92EF92FF926B016A
:100380007C010E9492014B015C01C114D104E10483
:10039000F104B9F00E949201681979098A099B0950
:1003A000683E73408105910580F321E0C21AD108AF
:1003B000E108F10888EE880E83E0981EA11CB11CAC
:1003C000E4CFFF90EF90DF90CF90BF90AF909F90E1
:1003D0008F900895AF92BF92CF92DF92EF92FF92EB
:1003E0000F931F93CF93DF936C017B018B01040F5D
:1003F000151FEB015E01AE18BF08C017D10759F0F9
:100400006991D601ED91FC910190F081E02DC6013A
:100410000995892B79F7C501DF91CF911F910F9134
:10042000FF90EF90DF90CF90BF90AF900895FC01C8
:10043000538D448D252F30E0842F90E0821B930B49
:10044000541710F0CF96089501970895FC01918DEF
:10045000828D981761F0A28DAE0FBF2FB11D5D96F2
:100460008C91928D9F5F9F73928F90E008958FEF94
:100470009FEF0895FC01918D828D981731F0828D48
:10048000E80FF11D858D90E008958FEF9FEF08959F
:10049000FC01918D228D892F90E0805C9F4F821B03
:1004A00091098F739927089585E891E00E94480289
:1004B00021E0892B09F420E0822F089580E090E06C
:1004C000892B29F00E94540281110C940000089598
:1004D000FC01A48DA80FB92FB11DA35ABF4F2C91B9
:1004E000848D90E001968F739927848FA689B789B0
:1004F0002C93A089B1898C91837080648C93938DA7
:10050000848D981306C00288F389E02D80818F7D49
:1005100080830895EF92FF920F931F93CF93DF9301
:10052000EC0181E0888F9B8D8C8D98131AC0E8892F
:10053000F989808185FF15C09FB7F894EE89FF89FE
:100540006083E889F98980818370806480839FBF9C
:1005500081E090E0DF91CF911F910F91FF90EF909C
:100560000895F62E0B8D10E00F5F1F4F0F731127AC
:10057000E02E8C8D8E110CC00FB607FCFACFE889E7
:10058000F989808185FFF5CFCE010E946802F1CF05
:10059000EB8DEC0FFD2FF11DE35AFF4FF0829FB75B
:1005A000F8940B8FEA89FB8980818062CFCFCF934B
:1005B000DF93EC01888D8823B9F0AA89BB89E8898B
:1005C000F9898C9185FD03C0808186FD0DC00FB631
:1005D00007FCF7CF8C9185FFF2CF808185FFEDCFAF
:1005E000CE010E946802E9CFDF91CF91089508956E
:1005F00090E080E00895CF92DF92EF92FF92CF9348
:10060000DF93EFEBF0E08491EAEAF0E0D491E5E9E2
:10061000F0E0C491CC2309F45DC081110E940A016D
:10062000EC2FF0E0EE0FFF1FE859FF4FA591B491BA
:10063000EC91ED2331E020E009F430E0832F922F9C
:10064000282F217030910001321799F03FB7F894AC
:1006500040917D0150917E0160917F0170918001F8
:100660003FBF409376015093770160937801709378
:1006700079013FB7F89440917D0150917E016091DE
:100680007F01709180013FBFC0907601D0907701CB
:10069000E0907801F09079014C195D096E097F09AD
:1006A000433351056105710560F03091000133233A
:1006B00041F0892B31F480917B0191E0892780936F
:1006C0007B0120930001DF91CF91FF90EF90DF90AD
:1006D000CF90089590E080E0B3CF8F929F92AF9239
:1006E000BF920F931F93CF93DF93CDB7DEB7A19740
:1006F0000FB6F894DEBF0FBECDBF19A2423008F48A
:100700004AE08E010F5D1F4F842E912CB12CA12C3D
:10071000A50194010E940209E62FB901CA01EA303D
:1007200044F5E05DD801EE938D01232B242B252B7E
:1007300079F790E080E0109769F0FD0101900020CA
:10074000E9F73197AF014A1B5B0BBD018CE492E0E6
:100750000E94EA01A1960FB6F894DEBF0FBECDBF8E
:10076000DF91CF911F910F91BF90AF909F908F908D
:100770000895E95CD7CFFC0101900020E9F731979B
:10078000AF01481B590BBC018CE492E00C94EA01C8
:10079000CF93DF93EC0160E08E810E94330161E032
:1007A0008E810E94330160E08E810E9433018BE8CC
:1007B00091E00197F1F7DF91CF910895CF92DF9209
:1007C000EF92FF920F931F93CF93DF936C017C0105
:1007D00087E0E80EF11CD0E0C0E0062F10E0B80181
:1007E0000C2E02C0759567950A94E2F76170F701C7
:1007F00081917F010E9433012196C430D10579F7A0
:10080000C601DF91CF911F910F91FF90EF90DF9084
:10081000CF900C94C803CF92DF92EF92FF920F9388
:100820001F93CF93DF93EC01F62E642F8C810E94EF
:1008300033018D818F3F19F060E00E9433010F2D4D
:1008400010E08F8584FF25C06E0187E0C80ED11CA3
:10085000F12CE12CB8010E2C02C0759567950A9415
:10086000E2F76170F60181916F010E943301FFEFA1
:10087000EF1AFF0A88E0E816F10461F7CE01DF9174
:10088000CF911F910F91FF90EF90DF90CF900C943C
:10089000C803B80184E0759567958A95E1F7CE01A4
:1008A0000E94DE036F2DCE01DF91CF911F910F913A
:1008B000FF90EF90DF90CF900C94DE0340E0682F24
:1008C0008CE492E00C940B0481E00E945E048BE3C4
:1008D0009FE10197F1F70895CF93DF93823029F4D8
:1008E00090915B02986090935B0280935F021092FC
:1008F000600280E48093610280E18093620280E57F
:100900008093630261E0809150020E9461018091B6
:1009100051028F3F19F061E00E94610161E0809116
:1009200052020E946101CCE4D2E09E012C5432407C
:1009300080915B0284FD0BC084E090E02196281733
:10094000390744F461E08E810E946101EECF88E0B6
:1009500090E0F4CF8BE39DE00197F1F760E08091A8
:1009600050020E94330160E0809152020E943301E4
:10097000809151028F3F19F060E00E943301809115
:100980005B0284FD34C063E08CE492E00E94DE03ED
:10099000CBE4D6E4CE010197F1F763E08CE492E07A
:1009A0000E94DE032197F1F763E08CE492E00E945D
:1009B000DE0383E592E00197F1F762E08CE492E0D8
:1009C0000E94DE0380915B0280620E945E0484E0EC
:1009D00080935C028CE00E945E040E94640482E0CA
:1009E00080935D0286E0DF91CF910C945E0480627B
:1009F0000E945E048BE496E40197F1F780915B021C
:100A000080620E945E0483E592E00197F1F7809195
:100A10005B0280620E945E04D5CF90915F028917CD
:100A200010F08FEF890FE82FF0E0E45BFD4F848931
:100A300080680C945E0480E00E940D058FE191E0D7
:100A40000E94BB030E94FB0262E370E080E090E042
:100A50000C94B70141E00E940B0481E090E00895FE
:100A6000CF92DF92EF92FF9297FF18C06B017C014B
:100A700041E06DE28CE492E00E940B046627772748
:100A8000CB016C197D098E099F094AE00E946D0314
:100A90000196FF90EF90DF90CF9008954AE0FF908D
:100AA000EF90DF90CF900C946D030F931F93CF9333
:100AB000DF93EC018B0180E00E940D0580E391E063
:100AC0000E94BB03BE01DD0F880B990B0E9430050D
:100AD00086E391E00E94BB0381E00E940D05C801FE
:100AE0000E94BB0386E391E0DF91CF911F910F91AC
:100AF0000C94BB031F920F920FB60F9211242F93E9
:100B00003F938F939F93AF93BF9380917D0190917B
:100B10007E01A0917F01B091800130917C0123E0A2
:100B2000230F2D3758F50196A11DB11D20937C018F
:100B300080937D0190937E01A0937F01B09380010B
:100B40008091810190918201A0918301B0918401F3
:100B50000196A11DB11D8093810190938201A09304
:100B60008301B0938401BF91AF919F918F913F9189
:100B70002F910F900FBE0F901F90189526E8230F0E
:100B80000296A11DB11DD2CF1F920F920FB60F92E8
:100B900011242F933F934F935F936F937F938F9382
:100BA0009F93AF93BF93EF93FF9385E891E00E94EB
:100BB0006802FF91EF91BF91AF919F918F917F91CB
:100BC0006F915F914F913F912F910F900FBE0F90BA
:100BD0001F9018951F920F920FB60F9211242F930A
:100BE0008F939F93EF93FF93E0919501F09196017E
:100BF0008081E0919B01F0919C0182FD1BC090815E
:100C000080919E018F5F8F7320919F01821741F029
:100C1000E0919E01F0E0EB57FE4F958F80939E018F
:100C2000FF91EF919F918F912F910F900FBE0F9099
:100C30001F9018958081F4CF1F920F920FB60F92DC
:100C400011242F933F934F935F936F937F938F93D1
:100C50009F93AF93BF93CF93DF93EF93FF938091D5
:100C60007A01C0914602D0E087FF24C0109285002F
:100C70001092840080917A018F5F80937A01809135
:100C80007A01082E000C990B8C179D0724F4809193
:100C90007A018C30C4F18091840090918500049693
:100CA00080349C4908F47AC080918400909185003A
:100CB000049676C080917A01082E000C990B8C174F
:100CC0009D07C4F6E0917A018E2FEE0F990BFC017F
:100CD000EE0FFF1FE80FF91FEE5DFD4F808186FFCD
:100CE000C9CFE0917A018E2FEE0F990BFC01EE0F28
:100CF000FF1FE80FF91FEE5DFD4F808160E08F73ED
:100D00000E943301B7CF2091840030918500E0919B
:100D10007A018E2FEE0F990BFC01EE0FFF1FE80FEB
:100D2000F91FEE5DFD4F81819281820F931F909399
:100D3000890080938800E0917A018E2FEE0F990B45
:100D4000FC01EE0FFF1FE80FF91FEE5DFD4F8081E4
:100D500086FF11C0E0917A018E2FEE0F990BFC01F6
:100D6000EE0FFF1FE80FF91FEE5DFD4F808161E080
:100D70008F730E943301FF91EF91DF91CF91BF916B
:100D8000AF919F918F917F916F915F914F913F9123
:100D90002F910F900FBE0F901F90189580E49CE943
:100DA00090938900809388008FEF80937A01E3CF3E
:100DB000CF93109288011092870188EE93E0A0E013
:100DC000B0E08093890190938A01A0938B01B09346
:100DD0008C0185E091E0909386018093850185ECFC
:100DE00090E0909392018093910184EC90E0909335
:100DF00094018093930180EC90E09093960180930E
:100E0000950181EC90E0909398018093970182EC9A
:100E100090E090939A018093990186EC90E09093F2
:100E20009C0180939B0110929E0110929F01109251
:100E3000A0011092A10110924F0210924E0287E180
:100E400091E090934D0280934C028DE0809350028C
:100E5000CFEFC09351028CE0809352028BE08093DD
:100E600053028AE08093540289E08093550288E01F
:100E70008093560210925702109258021092590213
:100E800010925A0210925B0281E00E946C048091E1
:100E900046028C30D0F491E0980F909346028093F4
:100EA000490290E0FC01EE0FFF1FE80FF91FEE5D15
:100EB000FD4F88EB9BE0928381838EE190E09093DD
:100EC000480280934702CF910895C0934902F5CF1D
:100ED000789484B5826084BD84B5816084BD85B515
:100EE000826085BD85B5816085BD80916E00816021
:100EF00080936E00109281008091810082608093C7
:100F000081008091810081608093810080918000C8
:100F10008160809380008091B10084608093B100F3
:100F20008091B00081608093B00080917A008460ED
:100F300080937A0080917A00826080937A00809119
:100F40007A00816080937A0080917A008068809333
:100F50007A001092C100809149028C3008F051C093
:100F600061E086E00E94610180914902282F30E013
:100F7000F901EE0FFF1FE20FF31FEE5DFD4F9081B1
:100F8000907C9660908310924A0210924B022CE063
:100F9000622F0E943309829FB001112430E020E0CB
:100FA000AB01420F531FFA01EE0FFF1FE40FF51FB5
:100FB000EE5DFD4F908196FD16C02F5F3F4F2C30A8
:100FC000310571F781110FC01092800082E080938B
:100FD00081001092850010928400B19A80916F0078
:100FE000826080936F00E09149028E2F90E0FC01B7
:100FF000EE0FFF1FE80FF91FEE5DFD4F808180644B
:10100000808380914702909148020E948E0082E086
:101010000E946C048AE391E00E94BB0381E00E947D
:101020000D0587E491E00E94BB0362E08FE00E941F
:101030006101E0919501F091960182E08083E09159
:101040009101F09192011082E0919301F09194014D
:101050008FEC808310929D01E0919901F0919A01AB
:1010600086E08083E0919701F09198018081806112
:101070008083E0919701F09198018081886080835E
:10108000E0919701F0919801808180688083E091E0
:101090009701F091980180818F7D80830E94640484
:1010A00000E010E00E94640480E00E940D0585E5E8
:1010B00091E00E94BB036EE170E080E090E00E944E
:1010C00030058AE591E00E94BB0368E770E080E0AC
:1010D00090E00E94300581E00E940D0580E691E0DD
:1010E0000E94BB0364E170E080E090E00E94300564
:1010F00087E691E00E94BB036CED75E080E090E034
:101100000E94B701CEE1D0E00E94FB0280917B01FA
:10111000882319F00E941B05F9CFCE010E948E0092
:10112000D0934802C09347026AE671E0CE010E9464
:10113000550564E170E080E090E00E94B7012196DF
:10114000C937D10509F7C8E7D0E00E94FB028091BA
:101150007B01882319F00E941B05F9CFCE010E9464
:101160008E00D0934802C09347026FE671E0CE0133
:101170000E94550564E170E080E090E00E94B701B4
:101180002197CD31D10509F70115110509F48ACF51
:101190000E945402882309F485CF0E94000082CF68
:1011A000052E97FB1EF400940E94E70857FD07D018
:1011B0000E94020907FC03D04EF40C94E7085095F6
:1011C0004095309521953F4F4F4F5F4F0895909533
:1011D0008095709561957F4F8F4F9F4F08950E9426
:1011E0002409A59F900DB49F900DA49F800D911D83
:1011F00011240895B7FF0C94EF080E94EF08821B9A
:10120000930B0895A1E21A2EAA1BBB1BFD010DC072
:10121000AA1FBB1FEE1FFF1FA217B307E407F507A6
:1012200020F0A21BB30BE40BF50B661F771F881F82
:10123000991F1A9469F760957095809590959B0118
:10124000AC01BD01CF010895A29FB001B39FC001C1
:10125000A39F700D811D1124911DB29F700D811DE2
:101260001124911D0895991B79E004C0991F9617C8
:1012700008F0961B881F7A95C9F780950895EE0FA0
:0E128000FF1F0590F491E02D0994F894FFCF24
:10128E0001000000008A02EA011702D70248022676
:10129E00023A02000000002A05EA01F802F70220D5
:1012AE00202A2A20504155534544202A2A20200026
:1012BE00506F733A200020202000416E6B6C652029
:1012CE00466C65786F7200436F6E74726F6C6C65EE
:1012DE0072207632004D696E3A00204D61783A00E8
:1012EE0053706565643A006D7300464C4558004571
:0612FE005854454E440067
:00000001FF
