:020000040000FA
:100000000C945F000C9487000C9487000C9487007C
:100010000C9487000C9487000C9487000C94870044
:100020000C9487000C9487000C9487000C94AE030A
:100030000C9487000C9487000C9487000C94870024
:100040000C940C030C9487000C947C030C945603C2
:100050000C9487000C9487000C9487000C94870004
:100060000C9487000C9487000000000024002700F7
:100070002A0000000000250028002B0004040404CE
:100080000404040402020202020203030303030342
:10009000020102040810204080010204081020011F
:1000A0000204081020800000000800020100000384
:1000B0000407000000000000000000006A04112492
:1000C0001FBECFEFD8E0DEBFCDBF11E0A0E0B1E0B2
:1000D000E2E0FDE002C005900D92A434B107D9F72B
:1000E00022E0A4E4B1E001C01D92A331B207E1F720
:1000F00010E0CFE5D0E004C02197FE010E94790610
:10010000CE35D107C9F70E94C7040C947F060C9422
:100110000000CF92DF92EF92FF92DC01A03282E0EA
:10012000B807D4F5A53BB10514F0A4EBB0E04091BD
:10013000110228E830E0241B310947FD3395220FD6
:10014000331F220F331F6901330FEE08FF08409160
:10015000120228E532E0241B310947FD3395220FB6
:10016000331F220F331F032E000C440B550B2C1989
:100170003D094E095F09B7FF02C0B0E0A0E00E9450
:10018000340624EB30E040E050E00E940A06C20E44
:10019000D31EE41EF51ED601E0911002EC3080F56E
:1001A0002091110288E890E0821B910927FD939528
:1001B000880F991F880F991FA817B90784F02091FD
:1001C000120288E592E0821B910927FD9395880F22
:1001D000991F880F991FA817B9070CF4CD01029732
:1001E000880F991F4FB7F8942E2F30E0F901EE0FCA
:1001F000FF1FE20FF31FE551FE4F928381834FBF34
:10020000FF90EF90DF90CF90089590E0FC01EA55C9
:10021000FF4F2491FC01EF56FF4F3491FC01E4584D
:10022000FF4FE491EE23C9F0222339F0233001F18E
:10023000A8F4213019F1223029F1F0E0EE0FFF1F70
:10024000EE58FF4FA591B4918FB7F894EC916111DE
:1002500026C030953E233C938FBF08952730A9F0E8
:100260002830C9F0243049F7809180008F7D03C089
:10027000809180008F7780938000DFCF84B58F7767
:1002800084BDDBCF84B58F7DFBCF8091B0008F77AD
:100290008093B000D2CF8091B0008F7DF9CF3E2BFC
:1002A000DACF3FB7F89480914A0190914B01A09129
:1002B0004C01B0914D0126B5A89B05C02F3F19F008
:1002C0000196A11DB11D3FBFBA2FA92F982F8827D6
:1002D000BC01CD01620F711D811D911D42E0660FB1
:1002E000771F881F991F4A95D1F708958F929F9283
:1002F000AF92BF92CF92DF92EF92FF926B017C019F
:100300000E9451014B015C01C114D104E104F104CC
:10031000B9F00E945101681979098A099B09683E60
:1003200073408105910580F321E0C21AD108E108EC
:10033000F10888EE880E83E0981EA11CB11CE4CF62
:10034000FF90EF90DF90CF90BF90AF909F908F90F5
:100350000895AF92BF92CF92DF92EF92FF920F93E8
:100360001F93CF93DF936C017B018B01040F151F4B
:10037000EB015E01AE18BF08C017D10759F06991B3
:10038000D601ED91FC910190F081E02DC601099517
:10039000892B79F7C501DF91CF911F910F91FF90C4
:1003A000EF90DF90CF90BF90AF900895FC01538DF8
:1003B000448D252F30E0842F90E0821B930B54173F
:1003C00010F0CF96089501970895FC01918D828DCC
:1003D000981761F0A28DAE0FBF2FB11D5D968C9165
:1003E000928D9F5F9F73928F90E008958FEF9FEFA4
:1003F0000895FC01918D828D981731F0828DE80F60
:10040000F11D858D90E008958FEF9FEF0895FC0119
:10041000918D228D892F90E0805C9F4F821B9109E6
:100420008F73992708958EE491E00E94070221E0DE
:10043000892B09F420E0822F089580E090E0892B39
:1004400029F00E94130281110C9400000895FC0110
:10045000A48DA80FB92FB11DA35ABF4F2C91848D25
:1004600090E001968F739927848FA689B7892C9382
:10047000A089B1898C91837080648C93938D848DD5
:10048000981306C00288F389E02D80818F7D8083D8
:100490000895EF92FF920F931F93CF93DF93EC0198
:1004A00081E0888F9B8D8C8D98131AC0E889F9891B
:1004B000808185FF15C09FB7F894EE89FF8960831E
:1004C000E889F98980818370806480839FBF81E09F
:1004D00090E0DF91CF911F910F91FF90EF900895E1
:1004E000F62E0B8D10E00F5F1F4F0F731127E02EBC
:1004F0008C8D8E110CC00FB607FCFACFE889F989F4
:10050000808185FFF5CFCE010E942702F1CFEB8DD0
:10051000EC0FFD2FF11DE35AFF4FF0829FB7F894C7
:100520000B8FEA89FB8980818062CFCF682F8EE4B0
:1005300091E00C944902CF93DF93EC01888D8823DE
:10054000B9F0AA89BB89E889F9898C9185FD03C036
:10055000808186FD0DC00FB607FCF7CF8C9185FF1B
:10056000F2CF808185FFEDCFCE010E942702E9CF37
:10057000DF91CF910895FC0101900020E9F73197B8
:10058000AF01481B590BBC018EE491E00C94A9010A
:100590008F929F92AF92BF920F931F93CF93DF934F
:1005A000CDB7DEB7A1970FB6F894DEBF0FBECDBFB3
:1005B00019A2423008F44AE08E010F5D1F4F842ECD
:1005C000912CB12CA12CA50194010E943C06E62F90
:1005D000B901CA01EA30F4F4E05DD801EE938D016F
:1005E000232B242B252B79F790E080E0109719F02E
:1005F000CD010E94BB02A1960FB6F894DEBF0FBEDC
:10060000CDBFDF91CF911F910F91BF90AF909F9081
:100610008F900895E95CE1CF1F920F920FB60F9271
:1006200011242F933F938F939F93AF93BF93809108
:10063000460190914701A0914801B0914901309144
:10064000450123E0230F2D3758F50196A11DB11D5B
:10065000209345018093460190934701A093480160
:10066000B093490180914A0190914B01A0914C01B6
:10067000B0914D010196A11DB11D80934A01909347
:100680004B01A0934C01B0934D01BF91AF919F914D
:100690008F913F912F910F900FBE0F901F90189543
:1006A00026E8230F0296A11DB11DD2CF1F920F92F3
:1006B0000FB60F9211242F933F934F935F936F9335
:1006C0007F938F939F93AF93BF93EF93FF938EE4AA
:1006D00091E00E942702FF91EF91BF91AF919F910E
:1006E0008F917F916F915F914F913F912F910F90DB
:1006F0000FBE0F901F9018951F920F920FB60F927A
:1007000011242F938F939F93EF93FF93E0915E01BA
:10071000F0915F018081E0916401F091650182FDBB
:100720001BC09081809167018F5F8F73209168015A
:10073000821741F0E0916701F0E0E25BFE4F958F98
:1007400080936701FF91EF919F918F912F910F906F
:100750000FBE0F901F9018958081F4CF1F920F92BB
:100760000FB60F9211242F933F934F935F936F9384
:100770007F938F939F93AF93BF93CF93DF93EF9329
:10078000FF9380914401C0910F02D0E087FF24C005
:100790001092850010928400809144018F5F8093B5
:1007A000440180914401082E000C990B8C179D0781
:1007B00024F4809144018C30C4F1809184009091A4
:1007C0008500049680349C4908F47AC080918400A6
:1007D00090918500049676C080914401082E000C0B
:1007E000990B8C179D07C4F6E09144018E2FEE0FF4
:1007F000990BFC01EE0FFF1FE80FF91FE551FE4FAB
:10080000808186FFC9CFE09144018E2FEE0F990BB6
:10081000FC01EE0FFF1FE80FF91FE551FE4F80812D
:1008200060E08F730E940501B7CF20918400309162
:100830008500E09144018E2FEE0F990BFC01EE0F25
:10084000FF1FE80FF91FE551FE4F81819281820F52
:10085000931F9093890080938800E09144018E2F2C
:10086000EE0F990BFC01EE0FFF1FE80FF91FE5518A
:10087000FE4F808186FF11C0E09144018E2FEE0F64
:10088000990BFC01EE0FFF1FE80FF91FE551FE4F1A
:10089000808161E08F730E940501FF91EF91DF91EC
:1008A000CF91BF91AF919F918F917F916F915F9108
:1008B0004F913F912F910F900FBE0F901F90189561
:1008C00080E49CE990938900809388008FEF809367
:1008D0004401E3CF109251011092500188EE93E051
:1008E000A0E0B0E08093520190935301A093540193
:1008F000B093550184E091E090934F0180934E01B5
:1009000085EC90E090935B0180935A0184EC90E039
:1009100090935D0180935C0180EC90E090935F0187
:1009200080935E0181EC90E090936101809360017F
:1009300082EC90E0909363018093620186EC90E0FA
:100940009093650180936401109267011092680191
:100950001092690110926A0180910F028C3098F414
:1009600091E0980F90930F028093100290E0FC01A9
:10097000EE0FFF1FE80FF91FE551FE4F88EB9BE0DC
:100980009283818308958FEF809310020895789465
:1009900084B5826084BD84B5816084BD85B5826084
:1009A00085BD85B5816085BD80916E008160809335
:1009B0006E0010928100809181008260809381009E
:1009C00080918100816080938100809180008160AE
:1009D000809380008091B10084608093B100809109
:1009E000B00081608093B00080917A008460809331
:1009F0007A0080917A00826080937A0080917A00F8
:100A0000816080937A0080917A00806880937A0078
:100A10001092C100809110028C3008F068C0EAE9A1
:100A2000F0E02491E5E8F0E08491882399F090E0EB
:100A3000880F991FFC01E859FF4FA591B491FC0163
:100A4000EE58FF4F859194918FB7F894EC91E22B7B
:100A5000EC938FBF80911002282F30E0F901EE0F48
:100A6000FF1FE20FF31FE551FE4F9081907C9960CC
:100A7000908310921102109212022CE0622F0E94B9
:100A80006D06829FB001112430E020E0AB01420FDF
:100A9000531FFA01EE0FFF1FE40FF51FE551FE4F44
:100AA000908196FD16C02F5F3F4F2C30310571F7B6
:100AB00081110FC01092800082E08093810010921B
:100AC000850010928400B19A80916F0082608093BB
:100AD0006F00E09110028E2F90E0FC01EE0FFF1FDF
:100AE000E80FF91FE551FE4F8081806480838BE41D
:100AF00090E00E948900E0915E01F0915F0182E048
:100B00008083E0915A01F0915B011082E0915C01D9
:100B1000F0915D018FEC808310926601E09162019B
:100B2000F091630186E08083E0916001F0916101C2
:100B3000808180618083E0916001F091610180811A
:100B400088608083E0916001F0916101808180681C
:100B50008083E0916001F091610180818F7D8083CD
:100B600082E191E00E94BB0282E391E00E94BB021D
:100B700000E010E08EEF90E00E94960281E090E0AD
:100B80000E94960285E391E00E94BB024AE06EE17A
:100B900070E080E090E00E94C8028EEF90E00E943A
:100BA000960280EC90E00E9496028CE391E00E9415
:100BB000BB024AE064E170E080E090E00E94C8027D
:100BC000CEE1D0E0CE010E94890064E170E080E0D7
:100BD00090E00E9476012196C937D10599F7C8E7C0
:100BE000D0E0CE010E94890064E170E080E090E0F6
:100BF0000E9476012197CD31D10599F70115110594
:100C000009F4B8CF0E941302882309F4B3CF0E94DD
:100C10000000B0CF052E97FB1EF400940E94210621
:100C200057FD07D00E943C0607FC03D04EF40C94FD
:100C3000210650954095309521953F4F4F4F5F4F7E
:100C4000089590958095709561957F4F8F4F9F4F38
:100C500008950E945E06A59F900DB49F900DA49FDD
:100C6000800D911D11240895B7FF0C9429060E9450
:100C70002906821B930B0895A1E21A2EAA1BBB1B07
:100C8000FD010DC0AA1FBB1FEE1FFF1FA217B30758
:100C9000E407F50720F0A21BB30BE40BF50B661F6E
:100CA000771F881F991F1A9469F760957095809532
:100CB00090959B01AC01BD01CF010895A29FB001A9
:100CC000B39FC001A39F700D811D1124911DB29F80
:100CD000700D811D1124911D0895991B79E004C0A8
:100CE000991F961708F0961B881F7A95C9F780956B
:100CF0000895EE0FFF1F0590F491E02D0994F894EC
:100D0000FFCF000000004902A901D6019B020702A3
:100D1000E501F901416E6B6C6520466C65786F7278
:100D200020436F6E74726F6C6C65722053746172C5
:100D3000746564000D0A00416E676C653A00546189
:060D4000726765743A00C1
:107E00001F92CDB7DEB7112484B714BE982F9D7092
:107E100009F0D7D085E08093810082E08093C00094
:107E200088E18093C10086E08093C20082E2809363
:107E3000C4008EE0B1D0259A26E080E39CEF31E0CB
:107E4000909385008093840036BBB09BFECF1D9A33
:107E5000A8952150A9F7812C912C93E0F92EEE24BE
:107E6000E39425E0D22E31E1C32E8AD0813479F417
:107E700087D0898397D08981823811F482E005C048
:107E8000813811F486E001C083E073D06FC0823482
:107E900011F484E103C0853419F485E08BD066C009
:107EA000853541F46DD0882E6BD0912C982A880CA2
:107EB000991C5BC0863521F484E07CD080E0E5CF5E
:107EC000843609F036C05CD05BD0B82E59D0A82ECD
:107ED00000E011E055D0F80181938F01BE12FACF76
:107EE00061D0F5E4AF1201C0FFCFF401F7BEE89511
:107EF00007B600FCFDCFB401A0E0B1E02C911296D2
:107F0000AD0141505109FA01808130E0382BFB016D
:107F10000901E7BEE89511246E5F7F4FBA12EECFDC
:107F2000F401D7BEE89507B600FCFDCFC7BEE895C3
:107F30001DC0843769F424D023D0B82E21D032D08C
:107F40008401F80185918F0114D0BA94D1F70EC045
:107F5000853739F427D08EE10CD085E90AD08FE03F
:107F600094CF813511F488E017D01CD080E101D086
:107F70007CCF9091C00095FFFCCF8093C600089500
:107F80008091C00087FFFCCF8091C00084FD01C0BC
:107F9000A8958091C6000895E0E6F0E098E190830E
:107FA00080830895EDDF803219F088E0F5DFFFCFA0
:107FB00084E1DFCFCF93C82FE3DFC150E9F7CF9142
:0E7FC000F1CF282E80E0E8DFE0E0FF270994F3
:027FFE00020679
:00000001FF
