:100000000C945F000C9487000C9487000C9487007C
:100010000C9487000C9487000C9487000C94870044
:100020000C9487000C9487000C9487000C94440176
:100030000C9487000C9487000C9487000C94870024
:100040000C94FA000C9487000C9487000C948700A1
:100050000C9487000C9487000C9487000C94870004
:100060000C9487000C9487000000000024002700F7
:100070002A0000000000250028002B0004040404CE
:100080000404040402020202020203030303030342
:10009000020102040810204080010204081020011F
:1000A0000204081020800000000800020100000384
:1000B0000407000000000000000000009C03112461
:1000C0001FBECFEFD8E0DEBFCDBF11E0A0E0B1E0B2
:1000D000ECE5F8E002C005900D92A030B107D9F729
:1000E00021E0A0E0B1E001C01D92A233B207E1F728
:1000F00010E0CFE5D0E004C02197FE010E94260465
:10010000CE35D107C9F70E9400020C942C040C9440
:10011000000090E0FC01EA55FF4F2491FC01EF56EE
:10012000FF4F3491FC01E458FF4FE491EE23C9F0F6
:10013000222339F0233001F1A8F4213019F12230C3
:1001400029F1F0E0EE0FFF1FEE58FF4FA591B4919B
:100150008FB7F894EC91611126C030953E233C9303
:100160008FBF08952730A9F02830C9F0243049F70F
:10017000809180008F7D03C0809180008F77809375
:100180008000DFCF84B58F7784BDDBCF84B58F7DD2
:10019000FBCF8091B0008F778093B000D2CF809159
:1001A000B0008F7DF9CF3E2BDACF3FB7F894809126
:1001B0002E0190912F01A0913001B091310126B50F
:1001C000A89B05C02F3F19F00196A11DB11D3FBF8F
:1001D000BA2FA92F982F8827BC01CD01620F711D5E
:1001E000811D911D42E0660F771F881F991F4A9558
:1001F000D1F708951F920F920FB60F9211242F93EB
:100200003F938F939F93AF93BF9380912A019091D7
:100210002B01A0912C01B0912D013091290123E0F7
:10022000230F2D3758F50196A11DB11D20932901EB
:1002300080932A0190932B01A0932C01B0932D0160
:1002400080912E0190912F01A0913001B091310148
:100250000196A11DB11D80932E0190932F01A093B3
:100260003001B0933101BF91AF919F918F913F9138
:100270002F910F900FBE0F901F90189526E8230F17
:100280000296A11DB11DD2CF1F920F920FB60F92F1
:1002900011242F933F934F935F936F937F938F938B
:1002A0009F93AF93BF93CF93DF93EF93FF9380918F
:1002B0000101C0910001D0E087FF24C010928500A9
:1002C00010928400809101018F5F809301018091E1
:1002D0000101082E000C990B8C179D0724F48091C6
:1002E00001018C30C4F180918400909185000496C6
:1002F00080349C4908F47AC08091840090918500F4
:10030000049676C080910101082E000C990B8C1781
:100310009D07C4F6E09101018E2FEE0F990BFC01B1
:10032000EE0FFF1FE80FF91FEE5FFE4F808186FF83
:10033000C9CFE09101018E2FEE0F990BFC01EE0F5A
:10034000FF1FE80FF91FEE5FFE4F808160E08F73A3
:100350000E948900B7CF2091840030918500E09100
:1003600001018E2FEE0F990BFC01EE0FFF1FE80F1E
:10037000F91FEE5FFE4F81819281820F931F909350
:10038000890080938800E09101018E2FEE0F990B78
:10039000FC01EE0FFF1FE80FF91FEE5FFE4F80819B
:1003A00086FF11C0E09101018E2FEE0F990BFC0129
:1003B000EE0FFF1FE80FF91FEE5FFE4F808161E037
:1003C0008F730E948900FF91EF91DF91CF91BF91D0
:1003D000AF919F918F917F916F915F914F913F91DD
:1003E0002F910F900FBE0F901F90189580E49CE9FD
:1003F00090938900809388008FEF80930101E3CF71
:10040000CF93DF9300D000D0CDB7DEB7789484B51A
:10041000826084BD84B5816084BD85B5826085BD00
:1004200085B5816085BD80916E00816080936E008E
:100430001092810080918100826080938100809180
:100440008100816080938100809180008160809331
:1004500080008091B10084608093B1008091B000F1
:1004600081608093B00080917A00846080937A00EC
:1004700080917A00826080937A0080917A00816016
:1004800080937A0080917A00806880937A0010923D
:10049000C100809126018C3008F068C0EAE9F0E0E4
:1004A0002491E5E8F0E08491882399F090E0880FAA
:1004B000991FFC01E859FF4FA591B491FC01EE583A
:1004C000FF4F859194918FB7F894EC91E22BEC93C8
:1004D0008FBF80912601282F30E0F901EE0FFF1F1A
:1004E000E20FF31FEE5FFE4F9081907C9960908346
:1004F00010922701109228012CE0622F0E941A040A
:10050000829FB001112430E020E0AB01420F531F65
:10051000FA01EE0FFF1FE40FF51FEE5FFE4F908113
:1005200096FD16C02F5F3F4F2C30310571F78111BA
:100530000FC01092800082E08093810010928500AD
:1005400010928400B19A80916F00826080936F0056
:10055000E09126018E2F90E0FC01EE0FFF1FE80FC7
:10056000F91FEE5FFE4F80818064808300E4B4EB6E
:100570008B2E912CA12CB12C00937C0080917A00C1
:10058000806480937A0080917A0086FDFCCF209170
:10059000780030917900A4EBB0E00E940B042FEFBB
:1005A00033E040E050E00E94B703222E312C8091CE
:1005B000280128E532E0281B310987FD3395220FF9
:1005C000331F220F331F3A8329836901330FEE084B
:1005D000FF088091270128E830E0281B310987FDBA
:1005E0003395220F331F220F331F3C832B832901A6
:1005F000330F660877081091260190E080E01F3FD6
:10060000D9F0212F30E0C901880F991F820F931F65
:10061000FC01EE5FFE4F8181928173E0880F991F8C
:100620007A95E1F7B0E0A0E0E4E0B595A79597955D
:100630008795EA95D1F70296C418D508E608F70819
:100640009C012F5F3F4F032E000C440B550B2419C8
:10065000350946095709A4EBB0E00E94D603A7016B
:1006600096010E94B70322163306D1F11C30C0F563
:10067000D101A53BB10514F0A4EBB0E0A7019601B0
:100680000E94E103A50194010E94B703420E531E8C
:10069000641E751E2B813C81421653064CF0298145
:1006A0003A813C832B834216530614F45C824B82BE
:1006B0008B819C810297880F991F9A8389834FB7FA
:1006C000F894812F90E09C01220F331F820F931F1B
:1006D000FC01EE5FFE4F29813A81328321834FBFB7
:1006E0000E94D5002B013C018AE0C82ED12CE12CC0
:1006F000F12C0E94D5006419750986099709683E96
:10070000734081059105A8F331E0C31AD108E108CF
:10071000F10888EE480E83E0581E611C711CC1145C
:10072000D104E104F10429F780E090E0892B09F479
:1007300023CF0E94000020CF809100018C3098F4DC
:1007400091E0980F909300018093260190E0FC01C6
:10075000EE0FFF1FE80FF91FEE5FFE4F88EB9BE0E7
:100760009283818308958FEF809326010895052E4B
:1007700097FB1EF400940E94CE0357FD07D00E9401
:10078000E90307FC03D04EF40C94CE03509540953A
:10079000309521953F4F4F4F5F4F0895909580952D
:1007A000709561957F4F8F4F9F4F08950E940B0466
:1007B000A59F900DB49F900DA49F800D911D1124B5
:1007C0000895B7FF0C94D6030E94D603821B930BA7
:1007D0000895A1E21A2EAA1BBB1BFD010DC0AA1F82
:1007E000BB1FEE1FFF1FA217B307E407F50720F09A
:1007F000A21BB30BE40BF50B661F771F881F991F15
:100800001A9469F760957095809590959B01AC015D
:10081000BD01CF010895A29FB001B39FC001A39F66
:10082000700D811D1124911DB29F700D811D112429
:10083000911D0895991B79E004C0991F961708F03F
:10084000961B881F7A95C9F780950895EE0FFF1FB4
:0C0850000590F491E02D0994F894FFCF7E
:00000001FF
